{
  "abi": [
    {
      "inputs": [
        {
          "internalType": "contract PurchaseToken",
          "name": "_purchaseToken",
          "type": "address"
        }
      ],
      "stateMutability": "nonpayable",
      "type": "constructor"
    },
    {
      "anonymous": false,
      "inputs": [
        {
          "indexed": true,
          "internalType": "address",
          "name": "creator",
          "type": "address"
        },
        {
          "indexed": true,
          "internalType": "address",
          "name": "ticketCollection",
          "type": "address"
        },
        {
          "indexed": false,
          "internalType": "string",
          "name": "eventName",
          "type": "string"
        },
        {
          "indexed": false,
          "internalType": "uint256",
          "name": "price",
          "type": "uint256"
        },
        {
          "indexed": false,
          "internalType": "uint256",
          "name": "maxNumberOfTickets",
          "type": "uint256"
        }
      ],
      "name": "EventCreated",
      "type": "event"
    },
    {
      "anonymous": false,
      "inputs": [
        {
          "indexed": true,
          "internalType": "address",
          "name": "holder",
          "type": "address"
        },
        {
          "indexed": true,
          "internalType": "address",
          "name": "ticketCollection",
          "type": "address"
        },
        {
          "indexed": false,
          "internalType": "uint256",
          "name": "ticketId",
          "type": "uint256"
        },
        {
          "indexed": false,
          "internalType": "string",
          "name": "holderName",
          "type": "string"
        }
      ],
      "name": "Purchase",
      "type": "event"
    },
    {
      "inputs": [
        {
          "internalType": "string",
          "name": "eventName",
          "type": "string"
        },
        {
          "internalType": "uint256",
          "name": "price",
          "type": "uint256"
        },
        {
          "internalType": "uint256",
          "name": "maxNumberOfTickets",
          "type": "uint256"
        }
      ],
      "name": "createNewEvent",
      "outputs": [
        {
          "internalType": "contract ITicketNFT",
          "name": "ticketCollection",
          "type": "address"
        }
      ],
      "stateMutability": "nonpayable",
      "type": "function"
    },
    {
      "inputs": [
        {
          "internalType": "address",
          "name": "ticketCollection",
          "type": "address"
        }
      ],
      "name": "getPrice",
      "outputs": [
        {
          "internalType": "uint256",
          "name": "price",
          "type": "uint256"
        }
      ],
      "stateMutability": "view",
      "type": "function"
    },
    {
      "inputs": [
        {
          "internalType": "address",
          "name": "ticketCollection",
          "type": "address"
        },
        {
          "internalType": "string",
          "name": "holderName",
          "type": "string"
        }
      ],
      "name": "purchase",
      "outputs": [
        {
          "internalType": "uint256",
          "name": "id",
          "type": "uint256"
        }
      ],
      "stateMutability": "nonpayable",
      "type": "function"
    }
  ],
  "bytecode": {
    "object": "0x608060405234801561001057600080fd5b50604051611d20380380611d2083398101604081905261002f91610054565b600080546001600160a01b0319166001600160a01b0392909216919091179055610084565b60006020828403121561006657600080fd5b81516001600160a01b038116811461007d57600080fd5b9392505050565b611c8d806100936000396000f3fe608060405234801561001057600080fd5b50600436106100415760003560e01c80633a1b1d571461004657806341976e091461006c578063a5cd54d41461007f575b600080fd5b6100596100543660046105ca565b6100aa565b6040519081526020015b60405180910390f35b61005961007a36600461061a565b61028a565b61009261008d36600461063e565b610310565b6040516001600160a01b039091168152602001610063565b60008083905060008054906101000a90046001600160a01b03166001600160a01b03166323b872dd33836001600160a01b03166302d05d3f6040518163ffffffff1660e01b8152600401602060405180830381865afa158015610111573d6000803e3d6000fd5b505050506040513d601f19601f82011682018060405250810190610135919061068c565b6001600160a01b038881166000908152600160205260409081902054905160e086901b6001600160e01b031916815293821660048501529116602483015260448201526064016020604051808303816000875af115801561019a573d6000803e3d6000fd5b505050506040513d601f19601f820116820180604052508101906101be91906106a9565b5060405163d0def52160e01b81526000906001600160a01b0383169063d0def521906101f09033908890600401610718565b6020604051808303816000875af115801561020f573d6000803e3d6000fd5b505050506040513d601f19601f820116820180604052508101906102339190610744565b9050846001600160a01b0316336001600160a01b03167f919be812a285f2dcdadb642b6be908c8924fb8e7c1bb20ceb040ed312b03c813838760405161027a92919061075d565b60405180910390a3949350505050565b6001600160a01b0381166000908152600160205260408120546102f45760405162461bcd60e51b815260206004820152601b60248201527f5469636b657420436f6c6c656374696f6e204e6f7420466f756e64000000000060448201526064015b60405180910390fd5b506001600160a01b031660009081526001602052604090205490565b6000336103755760405162461bcd60e51b815260206004820152602d60248201527f4576656e742063726561746f722063616e6e6f7420626520746865207a65726f60448201526c2f6275726e206164647265737360981b60648201526084016102eb565b60008451116103c65760405162461bcd60e51b815260206004820152601a60248201527f4576656e74206e616d652063616e6e6f7420626520656d70747900000000000060448201526064016102eb565b600082116104295760405162461bcd60e51b815260206004820152602a60248201527f4d6178696d756d206e756d626572206f66207469636b657473206d75737420626044820152696520706f73697469766560b01b60648201526084016102eb565b600083116104725760405162461bcd60e51b81526020600482015260166024820152755072696365206d75737420626520706f73697469766560501b60448201526064016102eb565b600033858460405161048390610501565b61048f93929190610776565b604051809103906000f0801580156104ab573d6000803e3d6000fd5b506001600160a01b03811660008181526001602052604090819020879055519192509033907f2a02a92e56497cfd27dfc15a4d0093031ad5012ce1fd1ae5107bfbc594e4cff39061027a908990899089906107aa565b61148880620007d083390190565b6001600160a01b038116811461052457600080fd5b50565b634e487b7160e01b600052604160045260246000fd5b600082601f83011261054e57600080fd5b813567ffffffffffffffff8082111561056957610569610527565b604051601f8301601f19908116603f0116810190828211818310171561059157610591610527565b816040528381528660208588010111156105aa57600080fd5b836020870160208301376000602085830101528094505050505092915050565b600080604083850312156105dd57600080fd5b82356105e88161050f565b9150602083013567ffffffffffffffff81111561060457600080fd5b6106108582860161053d565b9150509250929050565b60006020828403121561062c57600080fd5b81356106378161050f565b9392505050565b60008060006060848603121561065357600080fd5b833567ffffffffffffffff81111561066a57600080fd5b6106768682870161053d565b9660208601359650604090950135949350505050565b60006020828403121561069e57600080fd5b81516106378161050f565b6000602082840312156106bb57600080fd5b8151801515811461063757600080fd5b6000815180845260005b818110156106f1576020818501810151868301820152016106d5565b81811115610703576000602083870101525b50601f01601f19169290920160200192915050565b6001600160a01b038316815260406020820181905260009061073c908301846106cb565b949350505050565b60006020828403121561075657600080fd5b5051919050565b82815260406020820152600061073c60408301846106cb565b6001600160a01b038416815260606020820181905260009061079a908301856106cb565b9050826040830152949350505050565b6060815260006107bd60608301866106cb565b6020830194909452506040015291905056fe608060405260016004553480156200001657600080fd5b506040516200148838038062001488833981016040819052620000399162000159565b600180546001600160a01b0319166001600160a01b0385161790558151620000699060029060208501906200009d565b506005819055600080546001600160a01b031916331790556200009042620d2f0062000262565b60035550620002c6915050565b828054620000ab9062000289565b90600052602060002090601f016020900481019282620000cf57600085556200011a565b82601f10620000ea57805160ff19168380011785556200011a565b828001600101855582156200011a579182015b828111156200011a578251825591602001919060010190620000fd565b50620001289291506200012c565b5090565b5b808211156200012857600081556001016200012d565b634e487b7160e01b600052604160045260246000fd5b6000806000606084860312156200016f57600080fd5b83516001600160a01b03811681146200018757600080fd5b602085810151919450906001600160401b0380821115620001a757600080fd5b818701915087601f830112620001bc57600080fd5b815181811115620001d157620001d162000143565b604051601f8201601f19908116603f01168101908382118183101715620001fc57620001fc62000143565b816040528281528a868487010111156200021557600080fd5b600093505b828410156200023957848401860151818501870152928501926200021a565b828411156200024b5760008684830101525b809750505050505050604084015190509250925092565b600082198211156200028457634e487b7160e01b600052601160045260246000fd5b500190565b600181811c908216806200029e57607f821691505b60208210811415620002c057634e487b7160e01b600052602260045260246000fd5b50919050565b6111b280620002d66000396000f3fe608060405234801561001057600080fd5b50600436106101005760003560e01c806370a0823111610097578063c19538b011610066578063c19538b01461022e578063d0def52114610241578063dbacc23714610254578063fdf8a44e1461026757600080fd5b806370a08231146101d75780637b615c4b146102005780638043c9c0146102135780638543016c1461021b57600080fd5b80631ac0d8ac116100d35780631ac0d8ac1461016e57806323b872dd146101915780634ec82aac146101a4578063600580d5146101b757600080fd5b806302d05d3f14610105578063081812fc1461012f578063095ea7b31461014257806314235dff14610157575b600080fd5b6001546001600160a01b03165b6040516001600160a01b0390911681526020015b60405180910390f35b61011261013d366004610e71565b610270565b610155610150366004610ea6565b6102df565b005b61016060035481565b604051908152602001610126565b61018161017c366004610e71565b6103e4565b6040519015158152602001610126565b61015561019f366004610ed0565b610451565b600154610112906001600160a01b031681565b6101ca6101c5366004610e71565b61073f565b6040516101269190610f0c565b6101606101e5366004610f61565b6001600160a01b031660009081526007602052604090205490565b61015561020e366004610f7c565b610826565b6101ca6108fc565b610155610229366004610e71565b61098a565b600054610112906001600160a01b031681565b61016061024f36600461100e565b610b00565b610112610262366004610e71565b610d02565b61016060055481565b60008181526008602052604081205482906001600160a01b031615801590610299575060045481105b6102be5760405162461bcd60e51b81526004016102b5906110d0565b60405180910390fd5b6000838152600960205260409020546001600160a01b031691505b50919050565b60008181526008602052604090205481906001600160a01b031615801590610308575060045481105b6103245760405162461bcd60e51b81526004016102b5906110d0565b6000828152600860205260409020546001600160a01b0316331461038a5760405162461bcd60e51b815260206004820152601a60248201527f43616c6c6572206973206e6f74207469636b6574206f776e657200000000000060448201526064016102b5565b60008281526009602052604080822080546001600160a01b0319166001600160a01b0387169081179091559051849233917f8c5be1e5ebec7d5bd14f71427d1e84f3dd0314c0f7b2291e5b200ac8c7c3b9259190a4505050565b60008181526008602052604081205482906001600160a01b03161580159061040d575060045481105b6104295760405162461bcd60e51b81526004016102b5906110d0565b60008381526006602052604090206001015460ff168061044a575060035442115b9392505050565b60008181526008602052604090205481906001600160a01b03161580159061047a575060045481105b6104965760405162461bcd60e51b81526004016102b5906110d0565b6001600160a01b0383166104f65760405162461bcd60e51b815260206004820152602160248201527f5472616e7366657220746f20746865207a65726f2f6275726e206164647265736044820152607360f81b60648201526084016102b5565b6001600160a01b0384166105585760405162461bcd60e51b815260206004820152602360248201527f5472616e736665722066726f6d20746865207a65726f2f6275726e206164647260448201526265737360e81b60648201526084016102b5565b6000828152600860205260409020546001600160a01b038581169116146105c15760405162461bcd60e51b815260206004820152601d60248201527f5472616e736665722066726f6d20696e636f7272656374206f776e657200000060448201526064016102b5565b6001600160a01b0384163314806105ee57506000828152600960205260409020546001600160a01b031633145b61063a5760405162461bcd60e51b815260206004820181905260248201527f43616c6c6572206973206e6f74206f776e6572206e6f7220617070726f76656460448201526064016102b5565b600082815260086020908152604080832080546001600160a01b0319166001600160a01b0388811691909117909155871683526007909152812080549161068083611115565b90915550506001600160a01b03831660009081526007602052604081208054916106a98361112c565b909155505060008281526009602052604080822080546001600160a01b03191690555183916001600160a01b0386811692908816917fddf252ad1be2c89b69c2b068fc378daa952ba7f163c4a11628f55a4df523b3ef91a460405182906000906001600160a01b038716907f8c5be1e5ebec7d5bd14f71427d1e84f3dd0314c0f7b2291e5b200ac8c7c3b925908390a450505050565b60008181526008602052604090205460609082906001600160a01b03161580159061076b575060045481105b6107875760405162461bcd60e51b81526004016102b5906110d0565b600083815260066020526040902080546107a090611147565b80601f01602080910402602001604051908101604052809291908181526020018280546107cc90611147565b80156108195780601f106107ee57610100808354040283529160200191610819565b820191906000526020600020905b8154815290600101906020018083116107fc57829003601f168201915b5050505050915050919050565b60008381526008602052604090205483906001600160a01b03161580159061084f575060045481105b61086b5760405162461bcd60e51b81526004016102b5906110d0565b6000848152600860205260409020546001600160a01b031633146108dc5760405162461bcd60e51b815260206004820152602260248201527f4f6e6c79207469636b657420686f6c6465722063616e20757064617465206e616044820152616d6560f01b60648201526084016102b5565b60008481526006602052604090206108f5908484610d64565b5050505050565b6002805461090990611147565b80601f016020809104026020016040519081016040528092919081815260200182805461093590611147565b80156109825780601f1061095757610100808354040283529160200191610982565b820191906000526020600020905b81548152906001019060200180831161096557829003601f168201915b505050505081565b60008181526008602052604090205481906001600160a01b0316158015906109b3575060045481105b6109cf5760405162461bcd60e51b81526004016102b5906110d0565b6001546001600160a01b03163314610a355760405162461bcd60e51b815260206004820152602360248201527f4f6e6c792063726561746f722063616e20736574207469636b657420617320756044820152621cd95960ea1b60648201526084016102b5565b60008281526006602052604090206001015460ff1615610a8d5760405162461bcd60e51b8152602060048201526013602482015272151a58dad95d08185b1c9958591e481d5cd959606a1b60448201526064016102b5565b600354421115610adf5760405162461bcd60e51b815260206004820152601760248201527f4576656e74205469636b65744e4654206578706972656400000000000000000060448201526064016102b5565b5060009081526006602052604090206001908101805460ff19169091179055565b600080546001600160a01b03163314610b675760405162461bcd60e51b8152602060048201526024808201527f4f6e6c79205072696d617279204d61726b65742063616e206d696e74207469636044820152636b65747360e01b60648201526084016102b5565b6005546004541115610bbb5760405162461bcd60e51b815260206004820152601860248201527f4d6178207469636b6574206c696d69742072656163686564000000000000000060448201526064016102b5565b600354421115610c015760405162461bcd60e51b8152602060048201526011602482015270115d995b9d081a185cc8195e1c1a5c9959607a1b60448201526064016102b5565b6004805460009182610c128361112c565b90915550604080516060810182528581526000602080830182905260035483850152848252600681529290208151805194955091939092610c57928492910190610de8565b5060208281015160018301805460ff191691151591909117905560409283015160029092019190915560008381526008825282812080546001600160a01b0319166001600160a01b03891690811790915581526007909152908120805491610cbe8361112c565b909155505060405181906001600160a01b038616906000907fddf252ad1be2c89b69c2b068fc378daa952ba7f163c4a11628f55a4df523b3ef908290a49392505050565b60008181526008602052604081205482906001600160a01b031615801590610d2b575060045481105b610d475760405162461bcd60e51b81526004016102b5906110d0565b50506000908152600860205260409020546001600160a01b031690565b828054610d7090611147565b90600052602060002090601f016020900481019282610d925760008555610dd8565b82601f10610dab5782800160ff19823516178555610dd8565b82800160010185558215610dd8579182015b82811115610dd8578235825591602001919060010190610dbd565b50610de4929150610e5c565b5090565b828054610df490611147565b90600052602060002090601f016020900481019282610e165760008555610dd8565b82601f10610e2f57805160ff1916838001178555610dd8565b82800160010185558215610dd8579182015b82811115610dd8578251825591602001919060010190610e41565b5b80821115610de45760008155600101610e5d565b600060208284031215610e8357600080fd5b5035919050565b80356001600160a01b0381168114610ea157600080fd5b919050565b60008060408385031215610eb957600080fd5b610ec283610e8a565b946020939093013593505050565b600080600060608486031215610ee557600080fd5b610eee84610e8a565b9250610efc60208501610e8a565b9150604084013590509250925092565b600060208083528351808285015260005b81811015610f3957858101830151858201604001528201610f1d565b81811115610f4b576000604083870101525b50601f01601f1916929092016040019392505050565b600060208284031215610f7357600080fd5b61044a82610e8a565b600080600060408486031215610f9157600080fd5b83359250602084013567ffffffffffffffff80821115610fb057600080fd5b818601915086601f830112610fc457600080fd5b813581811115610fd357600080fd5b876020828501011115610fe557600080fd5b6020830194508093505050509250925092565b634e487b7160e01b600052604160045260246000fd5b6000806040838503121561102157600080fd5b61102a83610e8a565b9150602083013567ffffffffffffffff8082111561104757600080fd5b818501915085601f83011261105b57600080fd5b81358181111561106d5761106d610ff8565b604051601f8201601f19908116603f0116810190838211818310171561109557611095610ff8565b816040528281528860208487010111156110ae57600080fd5b8260208601602083013760006020848301015280955050505050509250929050565b602080825260159082015274151a58dad95d08191bd95cc81b9bdd08195e1a5cdd605a1b604082015260600190565b634e487b7160e01b600052601160045260246000fd5b600081611124576111246110ff565b506000190190565b6000600019821415611140576111406110ff565b5060010190565b600181811c9082168061115b57607f821691505b602082108114156102d957634e487b7160e01b600052602260045260246000fdfea26469706673582212206a1e50ac2547c2a73129f30c7658e5d7027154df310a5f385819a71cbc5a08f764736f6c634300080a0033a2646970667358221220167eea086e9fd2d4af6640942c6b0202645cf979f39a7f7ccba46b77e67ae66064736f6c634300080a0033",
    "linkReferences": {}
  },
  "methodIdentifiers": {
    "createNewEvent(string,uint256,uint256)": "a5cd54d4",
    "getPrice(address)": "41976e09",
    "purchase(address,string)": "3a1b1d57"
  },
  "id": 18
}