{
  "abi": [
    {
      "inputs": [
        {
          "internalType": "contract PurchaseToken",
          "name": "_purchaseToken",
          "type": "address"
        }
      ],
      "stateMutability": "nonpayable",
      "type": "constructor"
    },
    {
      "anonymous": false,
      "inputs": [
        {
          "indexed": true,
          "internalType": "address",
          "name": "bidder",
          "type": "address"
        },
        {
          "indexed": true,
          "internalType": "address",
          "name": "ticketCollection",
          "type": "address"
        },
        {
          "indexed": true,
          "internalType": "uint256",
          "name": "ticketID",
          "type": "uint256"
        },
        {
          "indexed": false,
          "internalType": "uint256",
          "name": "bidAmount",
          "type": "uint256"
        },
        {
          "indexed": false,
          "internalType": "string",
          "name": "newName",
          "type": "string"
        }
      ],
      "name": "BidAccepted",
      "type": "event"
    },
    {
      "anonymous": false,
      "inputs": [
        {
          "indexed": true,
          "internalType": "address",
          "name": "bidder",
          "type": "address"
        },
        {
          "indexed": true,
          "internalType": "address",
          "name": "ticketCollection",
          "type": "address"
        },
        {
          "indexed": true,
          "internalType": "uint256",
          "name": "ticketID",
          "type": "uint256"
        },
        {
          "indexed": false,
          "internalType": "uint256",
          "name": "bidAmount",
          "type": "uint256"
        },
        {
          "indexed": false,
          "internalType": "string",
          "name": "newName",
          "type": "string"
        }
      ],
      "name": "BidSubmitted",
      "type": "event"
    },
    {
      "anonymous": false,
      "inputs": [
        {
          "indexed": true,
          "internalType": "address",
          "name": "ticketCollection",
          "type": "address"
        },
        {
          "indexed": true,
          "internalType": "uint256",
          "name": "ticketID",
          "type": "uint256"
        }
      ],
      "name": "Delisting",
      "type": "event"
    },
    {
      "anonymous": false,
      "inputs": [
        {
          "indexed": true,
          "internalType": "address",
          "name": "holder",
          "type": "address"
        },
        {
          "indexed": true,
          "internalType": "address",
          "name": "ticketCollection",
          "type": "address"
        },
        {
          "indexed": true,
          "internalType": "uint256",
          "name": "ticketID",
          "type": "uint256"
        },
        {
          "indexed": false,
          "internalType": "uint256",
          "name": "price",
          "type": "uint256"
        }
      ],
      "name": "Listing",
      "type": "event"
    },
    {
      "inputs": [
        {
          "internalType": "address",
          "name": "ticketCollection",
          "type": "address"
        },
        {
          "internalType": "uint256",
          "name": "ticketID",
          "type": "uint256"
        }
      ],
      "name": "acceptBid",
      "outputs": [],
      "stateMutability": "nonpayable",
      "type": "function"
    },
    {
      "inputs": [
        {
          "internalType": "address",
          "name": "ticketCollection",
          "type": "address"
        },
        {
          "internalType": "uint256",
          "name": "ticketID",
          "type": "uint256"
        }
      ],
      "name": "delistTicket",
      "outputs": [],
      "stateMutability": "nonpayable",
      "type": "function"
    },
    {
      "inputs": [
        {
          "internalType": "address",
          "name": "ticketCollection",
          "type": "address"
        },
        {
          "internalType": "uint256",
          "name": "ticketID",
          "type": "uint256"
        }
      ],
      "name": "getHighestBid",
      "outputs": [
        {
          "internalType": "uint256",
          "name": "",
          "type": "uint256"
        }
      ],
      "stateMutability": "view",
      "type": "function"
    },
    {
      "inputs": [
        {
          "internalType": "address",
          "name": "ticketCollection",
          "type": "address"
        },
        {
          "internalType": "uint256",
          "name": "ticketID",
          "type": "uint256"
        }
      ],
      "name": "getHighestBidder",
      "outputs": [
        {
          "internalType": "address",
          "name": "",
          "type": "address"
        }
      ],
      "stateMutability": "view",
      "type": "function"
    },
    {
      "inputs": [
        {
          "internalType": "address",
          "name": "ticketCollection",
          "type": "address"
        },
        {
          "internalType": "uint256",
          "name": "ticketID",
          "type": "uint256"
        },
        {
          "internalType": "uint256",
          "name": "price",
          "type": "uint256"
        }
      ],
      "name": "listTicket",
      "outputs": [],
      "stateMutability": "nonpayable",
      "type": "function"
    },
    {
      "inputs": [
        {
          "internalType": "address",
          "name": "ticketCollection",
          "type": "address"
        },
        {
          "internalType": "uint256",
          "name": "ticketID",
          "type": "uint256"
        },
        {
          "internalType": "uint256",
          "name": "bidAmount",
          "type": "uint256"
        },
        {
          "internalType": "string",
          "name": "name",
          "type": "string"
        }
      ],
      "name": "submitBid",
      "outputs": [],
      "stateMutability": "nonpayable",
      "type": "function"
    }
  ],
  "bytecode": {
    "object": "0x608060405234801561001057600080fd5b5060405161153738038061153783398101604081905261002f91610054565b600080546001600160a01b0319166001600160a01b0392909216919091179055610084565b60006020828403121561006657600080fd5b81516001600160a01b038116811461007d57600080fd5b9392505050565b6114a4806100936000396000f3fe608060405234801561001057600080fd5b50600436106100625760003560e01c80631d66b15c14610067578063793bba6c1461007c5780638226508d1461008f578063955a5a76146100db578063a670a9b4146100ee578063f489b89a1461013c575b600080fd5b61007a61007536600461114d565b61014f565b005b61007a61008a366004611182565b610404565b6100c861009d366004611218565b6001600160a01b03919091166000908152600160208181526040808420948452939052919020015490565b6040519081526020015b60405180910390f35b61007a6100e9366004611218565b6108ac565b6101246100fc366004611218565b6001600160a01b03918216600090815260016020908152604080832093835292905220541690565b6040516001600160a01b0390911681526020016100d2565b61007a61014a366004611218565b610d86565b6040516306b0362b60e21b815260048101839052839083906001600160a01b03831690631ac0d8ac90602401602060405180830381865afa158015610198573d6000803e3d6000fd5b505050506040513d601f19601f820116820180604052508101906101bc9190611244565b156101e25760405162461bcd60e51b81526004016101d99061126d565b60405180910390fd5b6040516323b872dd60e01b81526001600160a01b038616906323b872dd906102129033903090899060040161129d565b600060405180830381600087803b15801561022c57600080fd5b505af1158015610240573d6000803e3d6000fd5b505050506040518060600160405280336001600160a01b031681526020018481526020016001151581525060026000876001600160a01b03166001600160a01b03168152602001908152602001600020600086815260200190815260200160002060008201518160000160006101000a8154816001600160a01b0302191690836001600160a01b031602179055506020820151816001015560408201518160020160006101000a81548160ff021916908315150217905550905050604051806060016040528060006001600160a01b031681526020018481526020016040518060200160405280600081525081525060016000876001600160a01b03166001600160a01b03168152602001908152602001600020600086815260200190815260200160002060008201518160000160006101000a8154816001600160a01b0302191690836001600160a01b031602179055506020820151816001015560408201518160020190805190602001906103b8929190611062565b50506040518481528591506001600160a01b0387169033907f84d2359781d0cae07f76a233e689a83b58360925f9177ebc367b5233511aab939060200160405180910390a45050505050565b6040516306b0362b60e21b815260048101859052859085906001600160a01b03831690631ac0d8ac90602401602060405180830381865afa15801561044d573d6000803e3d6000fd5b505050506040513d601f19601f820116820180604052508101906104719190611244565b1561048e5760405162461bcd60e51b81526004016101d99061126d565b6001600160a01b03871660009081526002602081815260408084208a85529091529091209081015460ff166104fb5760405162461bcd60e51b81526020600482015260136024820152725469636b6574206e6f7420666f722073616c6560681b60448201526064016101d9565b6001600160a01b03881660009081526001602081815260408084208b8552909152909120015486101561055e5760405162461bcd60e51b815260206004820152600b60248201526a42696420746f6f206c6f7760a81b60448201526064016101d9565b80546001600160a01b03163314156105c65760405162461bcd60e51b815260206004820152602560248201527f53656c6c65722063616e6e6f7420626964206f6e20686973206f776e206c697360448201526474696e677360d81b60648201526084016101d9565b6000546040516323b872dd60e01b81526001600160a01b03909116906323b872dd906105fa90339030908b9060040161129d565b6020604051808303816000875af1158015610619573d6000803e3d6000fd5b505050506040513d601f19601f8201168201806040525081019061063d9190611244565b506001600160a01b0380891660009081526001602090815260408083208b84529091529020805490911615610798576001600160a01b03891660009081526001602081815260408084208c8552909152909120015487116106ce5760405162461bcd60e51b815260206004820152600b60248201526a42696420746f6f206c6f7760a81b60448201526064016101d9565b6000548154600183015460405163a9059cbb60e01b81526001600160a01b039283166004820152602481019190915291169063a9059cbb906044016020604051808303816000875af1158015610728573d6000803e3d6000fd5b505050506040513d601f19601f8201168201806040525081019061074c9190611244565b6107985760405162461bcd60e51b815260206004820152601d60248201527f4661696c656420746f20726566756e642070726576696f75732062696400000060448201526064016101d9565b6040518060600160405280336001600160a01b0316815260200188815260200187878080601f01602080910402602001604051908101604052809392919081815260200183838082843760009201829052509390945250506001600160a01b038c811682526001602081815260408085208f8652825293849020865181546001600160a01b0319169416939093178355858101519183019190915591840151805191935061084d926002850192910190611062565b5090505087896001600160a01b0316336001600160a01b03167f85f2e66743c0791ddd157dc7ab9a9649a6839e2d79276c17187da6c0a3a860cd8a8a8a604051610899939291906112c1565b60405180910390a4505050505050505050565b6040516306b0362b60e21b815260048101829052829082906001600160a01b03831690631ac0d8ac90602401602060405180830381865afa1580156108f5573d6000803e3d6000fd5b505050506040513d601f19601f820116820180604052508101906109199190611244565b156109365760405162461bcd60e51b81526004016101d99061126d565b6001600160a01b03841660008181526002602081815260408084208885528252808420948452600182528084208885529091529091209082015460ff166109b35760405162461bcd60e51b81526020600482015260116024820152704e6f20616374697665206c697374696e6760781b60448201526064016101d9565b81546001600160a01b031633146109f95760405162461bcd60e51b815260206004820152600a6024820152692737ba1039b2b63632b960b11b60448201526064016101d9565b80546001600160a01b0316610a3e5760405162461bcd60e51b815260206004820152600b60248201526a139bc8189a591cc81e595d60aa1b60448201526064016101d9565b604051637b615c4b60e01b815286906001600160a01b03821690637b615c4b90610a719089906002870190600401611332565b600060405180830381600087803b158015610a8b57600080fd5b505af1158015610a9f573d6000803e3d6000fd5b505083546040516323b872dd60e01b81526001600160a01b0380861694506323b872dd9350610ad79230929116908b9060040161129d565b600060405180830381600087803b158015610af157600080fd5b505af1158015610b05573d6000803e3d6000fd5b505050506000670de0b6b3a7640000836001015466b1a2bc2ec50000610b2b91906113f9565b610b359190611418565b905060008054906101000a90046001600160a01b03166001600160a01b031663a9059cbb836001600160a01b03166302d05d3f6040518163ffffffff1660e01b8152600401602060405180830381865afa158015610b97573d6000803e3d6000fd5b505050506040513d601f19601f82011682018060405250810190610bbb919061143a565b6040516001600160e01b031960e084901b1681526001600160a01b039091166004820152602481018490526044016020604051808303816000875af1158015610c08573d6000803e3d6000fd5b505050506040513d601f19601f82011682018060405250810190610c2c9190611244565b50600054845460018501546001600160a01b039283169263a9059cbb921690610c56908590611457565b6040516001600160e01b031960e085901b1681526001600160a01b03909216600483015260248201526044016020604051808303816000875af1158015610ca1573d6000803e3d6000fd5b505050506040513d601f19601f82011682018060405250810190610cc59190611244565b506001600160a01b03881660008181526002602081815260408084208c855282528084208301805460ff1916905593835260018082528484208c855290915292822080546001600160a01b0319168155928301829055610d27908301826110e6565b50508254600184015460405189926001600160a01b03808d16939116917fe617cb81f1ecf15453e5ac151d07668051d9faa4f959e6d2dffa2f4327a1554591610d749160028a0190611332565b60405180910390a45050505050505050565b6001600160a01b03821660009081526002602081815260408084208585529091529091209081015460ff16610df15760405162461bcd60e51b81526020600482015260116024820152704e6f20616374697665206c697374696e6760781b60448201526064016101d9565b6040516306b0362b60e21b81526004810183905283906001600160a01b03821690631ac0d8ac90602401602060405180830381865afa158015610e38573d6000803e3d6000fd5b505050506040513d601f19601f82011682018060405250810190610e5c9190611244565b610eb25781546001600160a01b03163314610eb25760405162461bcd60e51b81526020600482015260166024820152752232b634b9ba32b91034b9903737ba1039b2b63632b960511b60448201526064016101d9565b6001600160a01b0380851660009081526001602090815260408083208784529091529020805490911615610f60576000548154600183015460405163a9059cbb60e01b81526001600160a01b039283166004820152602481019190915291169063a9059cbb906044016020604051808303816000875af1158015610f3a573d6000803e3d6000fd5b505050506040513d601f19601f82011682018060405250810190610f5e9190611244565b505b6040516323b872dd60e01b81526001600160a01b038316906323b872dd90610f909030903390899060040161129d565b600060405180830381600087803b158015610faa57600080fd5b505af1158015610fbe573d6000803e3d6000fd5b505050506001600160a01b038516600081815260026020818152604080842089855282528084208301805460ff19169055938352600180825284842089855290915292822080546001600160a01b0319168155928301829055611023908301826110e6565b505060405184906001600160a01b038716907f9c74d776e5765f64303c82b9dceb594cdf4d4e054e6530a839715a276532e0ab90600090a35050505050565b82805461106e906112f7565b90600052602060002090601f01602090048101928261109057600085556110d6565b82601f106110a957805160ff19168380011785556110d6565b828001600101855582156110d6579182015b828111156110d65782518255916020019190600101906110bb565b506110e2929150611123565b5090565b5080546110f2906112f7565b6000825580601f10611102575050565b601f0160209004906000526020600020908101906111209190611123565b50565b5b808211156110e25760008155600101611124565b6001600160a01b038116811461112057600080fd5b60008060006060848603121561116257600080fd5b833561116d81611138565b95602085013595506040909401359392505050565b60008060008060006080868803121561119a57600080fd5b85356111a581611138565b94506020860135935060408601359250606086013567ffffffffffffffff808211156111d057600080fd5b818801915088601f8301126111e457600080fd5b8135818111156111f357600080fd5b89602082850101111561120557600080fd5b9699959850939650602001949392505050565b6000806040838503121561122b57600080fd5b823561123681611138565b946020939093013593505050565b60006020828403121561125657600080fd5b8151801515811461126657600080fd5b9392505050565b602080825260169082015275151a58dad95d08195e1c1a5c9959081bdc881d5cd95960521b604082015260600190565b6001600160a01b039384168152919092166020820152604081019190915260600190565b83815260406020820152816040820152818360608301376000818301606090810191909152601f909201601f1916010192915050565b600181811c9082168061130b57607f821691505b6020821081141561132c57634e487b7160e01b600052602260045260246000fd5b50919050565b828152600060206040818401526000845481600182811c91508083168061135a57607f831692505b85831081141561137857634e487b7160e01b85526022600452602485fd5b604088018390526060880181801561139757600181146113a8576113d3565b60ff198616825287820196506113d3565b60008b81526020902060005b868110156113cd578154848201529085019089016113b4565b83019750505b50949a9950505050505050505050565b634e487b7160e01b600052601160045260246000fd5b6000816000190483118215151615611413576114136113e3565b500290565b60008261143557634e487b7160e01b600052601260045260246000fd5b500490565b60006020828403121561144c57600080fd5b815161126681611138565b600082821015611469576114696113e3565b50039056fea2646970667358221220e3eef40d5c486ad88d7b965e47eed48afa5d47e4030b5672bd80e46f46ce74b264736f6c634300080a0033",
    "linkReferences": {}
  },
  "methodIdentifiers": {
    "acceptBid(address,uint256)": "955a5a76",
    "delistTicket(address,uint256)": "f489b89a",
    "getHighestBid(address,uint256)": "8226508d",
    "getHighestBidder(address,uint256)": "a670a9b4",
    "listTicket(address,uint256,uint256)": "1d66b15c",
    "submitBid(address,uint256,uint256,string)": "793bba6c"
  },
  "id": 20
}