{
  "abi": [
    {
      "inputs": [
        {
          "internalType": "address",
          "name": "_eventCreator",
          "type": "address"
        },
        {
          "internalType": "string",
          "name": "_eventName",
          "type": "string"
        },
        {
          "internalType": "uint256",
          "name": "_maxNumberOfTickets",
          "type": "uint256"
        }
      ],
      "stateMutability": "nonpayable",
      "type": "constructor"
    },
    {
      "anonymous": false,
      "inputs": [
        {
          "indexed": true,
          "internalType": "address",
          "name": "holder",
          "type": "address"
        },
        {
          "indexed": true,
          "internalType": "address",
          "name": "approved",
          "type": "address"
        },
        {
          "indexed": true,
          "internalType": "uint256",
          "name": "ticketID",
          "type": "uint256"
        }
      ],
      "name": "Approval",
      "type": "event"
    },
    {
      "anonymous": false,
      "inputs": [
        {
          "indexed": true,
          "internalType": "address",
          "name": "from",
          "type": "address"
        },
        {
          "indexed": true,
          "internalType": "address",
          "name": "to",
          "type": "address"
        },
        {
          "indexed": true,
          "internalType": "uint256",
          "name": "ticketID",
          "type": "uint256"
        }
      ],
      "name": "Transfer",
      "type": "event"
    },
    {
      "inputs": [
        {
          "internalType": "address",
          "name": "to",
          "type": "address"
        },
        {
          "internalType": "uint256",
          "name": "ticketID",
          "type": "uint256"
        }
      ],
      "name": "approve",
      "outputs": [],
      "stateMutability": "nonpayable",
      "type": "function"
    },
    {
      "inputs": [
        {
          "internalType": "address",
          "name": "holder",
          "type": "address"
        }
      ],
      "name": "balanceOf",
      "outputs": [
        {
          "internalType": "uint256",
          "name": "",
          "type": "uint256"
        }
      ],
      "stateMutability": "view",
      "type": "function"
    },
    {
      "inputs": [],
      "name": "creator",
      "outputs": [
        {
          "internalType": "address",
          "name": "",
          "type": "address"
        }
      ],
      "stateMutability": "view",
      "type": "function"
    },
    {
      "inputs": [],
      "name": "eventCreator",
      "outputs": [
        {
          "internalType": "address",
          "name": "",
          "type": "address"
        }
      ],
      "stateMutability": "view",
      "type": "function"
    },
    {
      "inputs": [],
      "name": "eventExpiryDate",
      "outputs": [
        {
          "internalType": "uint256",
          "name": "",
          "type": "uint256"
        }
      ],
      "stateMutability": "view",
      "type": "function"
    },
    {
      "inputs": [],
      "name": "eventName",
      "outputs": [
        {
          "internalType": "string",
          "name": "",
          "type": "string"
        }
      ],
      "stateMutability": "view",
      "type": "function"
    },
    {
      "inputs": [
        {
          "internalType": "uint256",
          "name": "ticketID",
          "type": "uint256"
        }
      ],
      "name": "getApproved",
      "outputs": [
        {
          "internalType": "address",
          "name": "",
          "type": "address"
        }
      ],
      "stateMutability": "view",
      "type": "function"
    },
    {
      "inputs": [
        {
          "internalType": "uint256",
          "name": "ticketID",
          "type": "uint256"
        }
      ],
      "name": "holderNameOf",
      "outputs": [
        {
          "internalType": "string",
          "name": "",
          "type": "string"
        }
      ],
      "stateMutability": "view",
      "type": "function"
    },
    {
      "inputs": [
        {
          "internalType": "uint256",
          "name": "ticketID",
          "type": "uint256"
        }
      ],
      "name": "holderOf",
      "outputs": [
        {
          "internalType": "address",
          "name": "",
          "type": "address"
        }
      ],
      "stateMutability": "view",
      "type": "function"
    },
    {
      "inputs": [
        {
          "internalType": "uint256",
          "name": "ticketID",
          "type": "uint256"
        }
      ],
      "name": "isExpiredOrUsed",
      "outputs": [
        {
          "internalType": "bool",
          "name": "",
          "type": "bool"
        }
      ],
      "stateMutability": "view",
      "type": "function"
    },
    {
      "inputs": [],
      "name": "maxNumberOfTickets",
      "outputs": [
        {
          "internalType": "uint256",
          "name": "",
          "type": "uint256"
        }
      ],
      "stateMutability": "view",
      "type": "function"
    },
    {
      "inputs": [
        {
          "internalType": "address",
          "name": "holder",
          "type": "address"
        },
        {
          "internalType": "string",
          "name": "holderName",
          "type": "string"
        }
      ],
      "name": "mint",
      "outputs": [
        {
          "internalType": "uint256",
          "name": "",
          "type": "uint256"
        }
      ],
      "stateMutability": "nonpayable",
      "type": "function"
    },
    {
      "inputs": [],
      "name": "primaryMarketAddress",
      "outputs": [
        {
          "internalType": "address",
          "name": "",
          "type": "address"
        }
      ],
      "stateMutability": "view",
      "type": "function"
    },
    {
      "inputs": [
        {
          "internalType": "uint256",
          "name": "ticketID",
          "type": "uint256"
        }
      ],
      "name": "setUsed",
      "outputs": [],
      "stateMutability": "nonpayable",
      "type": "function"
    },
    {
      "inputs": [
        {
          "internalType": "address",
          "name": "from",
          "type": "address"
        },
        {
          "internalType": "address",
          "name": "to",
          "type": "address"
        },
        {
          "internalType": "uint256",
          "name": "ticketID",
          "type": "uint256"
        }
      ],
      "name": "transferFrom",
      "outputs": [],
      "stateMutability": "nonpayable",
      "type": "function"
    },
    {
      "inputs": [
        {
          "internalType": "uint256",
          "name": "ticketID",
          "type": "uint256"
        },
        {
          "internalType": "string",
          "name": "newName",
          "type": "string"
        }
      ],
      "name": "updateHolderName",
      "outputs": [],
      "stateMutability": "nonpayable",
      "type": "function"
    }
  ],
  "bytecode": {
    "object": "0x608060405260016004553480156200001657600080fd5b506040516200148838038062001488833981016040819052620000399162000159565b600180546001600160a01b0319166001600160a01b0385161790558151620000699060029060208501906200009d565b506005819055600080546001600160a01b031916331790556200009042620d2f0062000262565b60035550620002c6915050565b828054620000ab9062000289565b90600052602060002090601f016020900481019282620000cf57600085556200011a565b82601f10620000ea57805160ff19168380011785556200011a565b828001600101855582156200011a579182015b828111156200011a578251825591602001919060010190620000fd565b50620001289291506200012c565b5090565b5b808211156200012857600081556001016200012d565b634e487b7160e01b600052604160045260246000fd5b6000806000606084860312156200016f57600080fd5b83516001600160a01b03811681146200018757600080fd5b602085810151919450906001600160401b0380821115620001a757600080fd5b818701915087601f830112620001bc57600080fd5b815181811115620001d157620001d162000143565b604051601f8201601f19908116603f01168101908382118183101715620001fc57620001fc62000143565b816040528281528a868487010111156200021557600080fd5b600093505b828410156200023957848401860151818501870152928501926200021a565b828411156200024b5760008684830101525b809750505050505050604084015190509250925092565b600082198211156200028457634e487b7160e01b600052601160045260246000fd5b500190565b600181811c908216806200029e57607f821691505b60208210811415620002c057634e487b7160e01b600052602260045260246000fd5b50919050565b6111b280620002d66000396000f3fe608060405234801561001057600080fd5b50600436106101005760003560e01c806370a0823111610097578063c19538b011610066578063c19538b01461022e578063d0def52114610241578063dbacc23714610254578063fdf8a44e1461026757600080fd5b806370a08231146101d75780637b615c4b146102005780638043c9c0146102135780638543016c1461021b57600080fd5b80631ac0d8ac116100d35780631ac0d8ac1461016e57806323b872dd146101915780634ec82aac146101a4578063600580d5146101b757600080fd5b806302d05d3f14610105578063081812fc1461012f578063095ea7b31461014257806314235dff14610157575b600080fd5b6001546001600160a01b03165b6040516001600160a01b0390911681526020015b60405180910390f35b61011261013d366004610e71565b610270565b610155610150366004610ea6565b6102df565b005b61016060035481565b604051908152602001610126565b61018161017c366004610e71565b6103e4565b6040519015158152602001610126565b61015561019f366004610ed0565b610451565b600154610112906001600160a01b031681565b6101ca6101c5366004610e71565b61073f565b6040516101269190610f0c565b6101606101e5366004610f61565b6001600160a01b031660009081526007602052604090205490565b61015561020e366004610f7c565b610826565b6101ca6108fc565b610155610229366004610e71565b61098a565b600054610112906001600160a01b031681565b61016061024f36600461100e565b610b00565b610112610262366004610e71565b610d02565b61016060055481565b60008181526008602052604081205482906001600160a01b031615801590610299575060045481105b6102be5760405162461bcd60e51b81526004016102b5906110d0565b60405180910390fd5b6000838152600960205260409020546001600160a01b031691505b50919050565b60008181526008602052604090205481906001600160a01b031615801590610308575060045481105b6103245760405162461bcd60e51b81526004016102b5906110d0565b6000828152600860205260409020546001600160a01b0316331461038a5760405162461bcd60e51b815260206004820152601a60248201527f43616c6c6572206973206e6f74207469636b6574206f776e657200000000000060448201526064016102b5565b60008281526009602052604080822080546001600160a01b0319166001600160a01b0387169081179091559051849233917f8c5be1e5ebec7d5bd14f71427d1e84f3dd0314c0f7b2291e5b200ac8c7c3b9259190a4505050565b60008181526008602052604081205482906001600160a01b03161580159061040d575060045481105b6104295760405162461bcd60e51b81526004016102b5906110d0565b60008381526006602052604090206001015460ff168061044a575060035442115b9392505050565b60008181526008602052604090205481906001600160a01b03161580159061047a575060045481105b6104965760405162461bcd60e51b81526004016102b5906110d0565b6001600160a01b0383166104f65760405162461bcd60e51b815260206004820152602160248201527f5472616e7366657220746f20746865207a65726f2f6275726e206164647265736044820152607360f81b60648201526084016102b5565b6001600160a01b0384166105585760405162461bcd60e51b815260206004820152602360248201527f5472616e736665722066726f6d20746865207a65726f2f6275726e206164647260448201526265737360e81b60648201526084016102b5565b6000828152600860205260409020546001600160a01b038581169116146105c15760405162461bcd60e51b815260206004820152601d60248201527f5472616e736665722066726f6d20696e636f7272656374206f776e657200000060448201526064016102b5565b6001600160a01b0384163314806105ee57506000828152600960205260409020546001600160a01b031633145b61063a5760405162461bcd60e51b815260206004820181905260248201527f43616c6c6572206973206e6f74206f776e6572206e6f7220617070726f76656460448201526064016102b5565b600082815260086020908152604080832080546001600160a01b0319166001600160a01b0388811691909117909155871683526007909152812080549161068083611115565b90915550506001600160a01b03831660009081526007602052604081208054916106a98361112c565b909155505060008281526009602052604080822080546001600160a01b03191690555183916001600160a01b0386811692908816917fddf252ad1be2c89b69c2b068fc378daa952ba7f163c4a11628f55a4df523b3ef91a460405182906000906001600160a01b038716907f8c5be1e5ebec7d5bd14f71427d1e84f3dd0314c0f7b2291e5b200ac8c7c3b925908390a450505050565b60008181526008602052604090205460609082906001600160a01b03161580159061076b575060045481105b6107875760405162461bcd60e51b81526004016102b5906110d0565b600083815260066020526040902080546107a090611147565b80601f01602080910402602001604051908101604052809291908181526020018280546107cc90611147565b80156108195780601f106107ee57610100808354040283529160200191610819565b820191906000526020600020905b8154815290600101906020018083116107fc57829003601f168201915b5050505050915050919050565b60008381526008602052604090205483906001600160a01b03161580159061084f575060045481105b61086b5760405162461bcd60e51b81526004016102b5906110d0565b6000848152600860205260409020546001600160a01b031633146108dc5760405162461bcd60e51b815260206004820152602260248201527f4f6e6c79207469636b657420686f6c6465722063616e20757064617465206e616044820152616d6560f01b60648201526084016102b5565b60008481526006602052604090206108f5908484610d64565b5050505050565b6002805461090990611147565b80601f016020809104026020016040519081016040528092919081815260200182805461093590611147565b80156109825780601f1061095757610100808354040283529160200191610982565b820191906000526020600020905b81548152906001019060200180831161096557829003601f168201915b505050505081565b60008181526008602052604090205481906001600160a01b0316158015906109b3575060045481105b6109cf5760405162461bcd60e51b81526004016102b5906110d0565b6001546001600160a01b03163314610a355760405162461bcd60e51b815260206004820152602360248201527f4f6e6c792063726561746f722063616e20736574207469636b657420617320756044820152621cd95960ea1b60648201526084016102b5565b60008281526006602052604090206001015460ff1615610a8d5760405162461bcd60e51b8152602060048201526013602482015272151a58dad95d08185b1c9958591e481d5cd959606a1b60448201526064016102b5565b600354421115610adf5760405162461bcd60e51b815260206004820152601760248201527f4576656e74205469636b65744e4654206578706972656400000000000000000060448201526064016102b5565b5060009081526006602052604090206001908101805460ff19169091179055565b600080546001600160a01b03163314610b675760405162461bcd60e51b8152602060048201526024808201527f4f6e6c79205072696d617279204d61726b65742063616e206d696e74207469636044820152636b65747360e01b60648201526084016102b5565b6005546004541115610bbb5760405162461bcd60e51b815260206004820152601860248201527f4d6178207469636b6574206c696d69742072656163686564000000000000000060448201526064016102b5565b600354421115610c015760405162461bcd60e51b8152602060048201526011602482015270115d995b9d081a185cc8195e1c1a5c9959607a1b60448201526064016102b5565b6004805460009182610c128361112c565b90915550604080516060810182528581526000602080830182905260035483850152848252600681529290208151805194955091939092610c57928492910190610de8565b5060208281015160018301805460ff191691151591909117905560409283015160029092019190915560008381526008825282812080546001600160a01b0319166001600160a01b03891690811790915581526007909152908120805491610cbe8361112c565b909155505060405181906001600160a01b038616906000907fddf252ad1be2c89b69c2b068fc378daa952ba7f163c4a11628f55a4df523b3ef908290a49392505050565b60008181526008602052604081205482906001600160a01b031615801590610d2b575060045481105b610d475760405162461bcd60e51b81526004016102b5906110d0565b50506000908152600860205260409020546001600160a01b031690565b828054610d7090611147565b90600052602060002090601f016020900481019282610d925760008555610dd8565b82601f10610dab5782800160ff19823516178555610dd8565b82800160010185558215610dd8579182015b82811115610dd8578235825591602001919060010190610dbd565b50610de4929150610e5c565b5090565b828054610df490611147565b90600052602060002090601f016020900481019282610e165760008555610dd8565b82601f10610e2f57805160ff1916838001178555610dd8565b82800160010185558215610dd8579182015b82811115610dd8578251825591602001919060010190610e41565b5b80821115610de45760008155600101610e5d565b600060208284031215610e8357600080fd5b5035919050565b80356001600160a01b0381168114610ea157600080fd5b919050565b60008060408385031215610eb957600080fd5b610ec283610e8a565b946020939093013593505050565b600080600060608486031215610ee557600080fd5b610eee84610e8a565b9250610efc60208501610e8a565b9150604084013590509250925092565b600060208083528351808285015260005b81811015610f3957858101830151858201604001528201610f1d565b81811115610f4b576000604083870101525b50601f01601f1916929092016040019392505050565b600060208284031215610f7357600080fd5b61044a82610e8a565b600080600060408486031215610f9157600080fd5b83359250602084013567ffffffffffffffff80821115610fb057600080fd5b818601915086601f830112610fc457600080fd5b813581811115610fd357600080fd5b876020828501011115610fe557600080fd5b6020830194508093505050509250925092565b634e487b7160e01b600052604160045260246000fd5b6000806040838503121561102157600080fd5b61102a83610e8a565b9150602083013567ffffffffffffffff8082111561104757600080fd5b818501915085601f83011261105b57600080fd5b81358181111561106d5761106d610ff8565b604051601f8201601f19908116603f0116810190838211818310171561109557611095610ff8565b816040528281528860208487010111156110ae57600080fd5b8260208601602083013760006020848301015280955050505050509250929050565b602080825260159082015274151a58dad95d08191bd95cc81b9bdd08195e1a5cdd605a1b604082015260600190565b634e487b7160e01b600052601160045260246000fd5b600081611124576111246110ff565b506000190190565b6000600019821415611140576111406110ff565b5060010190565b600181811c9082168061115b57607f821691505b602082108114156102d957634e487b7160e01b600052602260045260246000fdfea26469706673582212206a1e50ac2547c2a73129f30c7658e5d7027154df310a5f385819a71cbc5a08f764736f6c634300080a0033",
    "linkReferences": {}
  },
  "methodIdentifiers": {
    "approve(address,uint256)": "095ea7b3",
    "balanceOf(address)": "70a08231",
    "creator()": "02d05d3f",
    "eventCreator()": "4ec82aac",
    "eventExpiryDate()": "14235dff",
    "eventName()": "8043c9c0",
    "getApproved(uint256)": "081812fc",
    "holderNameOf(uint256)": "600580d5",
    "holderOf(uint256)": "dbacc237",
    "isExpiredOrUsed(uint256)": "1ac0d8ac",
    "maxNumberOfTickets()": "fdf8a44e",
    "mint(address,string)": "d0def521",
    "primaryMarketAddress()": "c19538b0",
    "setUsed(uint256)": "8543016c",
    "transferFrom(address,address,uint256)": "23b872dd",
    "updateHolderName(uint256,string)": "7b615c4b"
  },
  "id": 21
}